{"abi":[{"type":"function","name":"DISCOUNT_FEE_PERCENTAGE","inputs":[],"outputs":[{"name":"","type":"uint256","internalType":"uint256"}],"stateMutability":"view"},{"type":"function","name":"DISCOUNT_THRESHOLD","inputs":[],"outputs":[{"name":"","type":"uint256","internalType":"uint256"}],"stateMutability":"view"},{"type":"function","name":"balances","inputs":[{"name":"","type":"address","internalType":"address"}],"outputs":[{"name":"","type":"uint256","internalType":"uint256"}],"stateMutability":"view"},{"type":"function","name":"checkVictory","inputs":[{"name":"user","type":"address","internalType":"address"},{"name":"initialBalance","type":"uint256","internalType":"uint256"},{"name":"withdrawnAmount","type":"uint256","internalType":"uint256"}],"outputs":[{"name":"","type":"bool","internalType":"bool"}],"stateMutability":"view"},{"type":"function","name":"deposit","inputs":[{"name":"amount","type":"uint256","internalType":"uint256"}],"outputs":[],"stateMutability":"nonpayable"},{"type":"function","name":"executeTrade","inputs":[{"name":"tradeAmount","type":"uint256","internalType":"uint256"}],"outputs":[],"stateMutability":"nonpayable"},{"type":"function","name":"initialTotalSupply","inputs":[],"outputs":[{"name":"","type":"uint256","internalType":"uint256"}],"stateMutability":"view"},{"type":"function","name":"totalSupply","inputs":[],"outputs":[{"name":"","type":"uint256","internalType":"uint256"}],"stateMutability":"view"},{"type":"function","name":"withdraw","inputs":[{"name":"amount","type":"uint256","internalType":"uint256"}],"outputs":[],"stateMutability":"nonpayable"}],"bytecode":{"object":"0x6080604052348015600f57600080fd5b50610a1d8061001f6000396000f3fe608060405234801561001057600080fd5b50600436106100935760003560e01c80633044955311610066578063304495531461011e578063311028af1461013c578063596404f21461015a578063b6b55f2514610178578063e8f8eda71461019457610093565b806302d2838b1461009857806318160ddd146100b457806327e235e3146100d25780632e1a7d4d14610102575b600080fd5b6100b260048036038101906100ad91906105ee565b6101c4565b005b6100bc610329565b6040516100c9919061062a565b60405180910390f35b6100ec60048036038101906100e791906106a3565b61032f565b6040516100f9919061062a565b60405180910390f35b61011c600480360381019061011791906105ee565b610347565b005b610126610439565b604051610133919061062a565b60405180910390f35b610144610446565b604051610151919061062a565b60405180910390f35b61016261044c565b60405161016f919061062a565b60405180910390f35b610192600480360381019061018d91906105ee565b610451565b005b6101ae60048036038101906101a991906106d0565b6104e1565b6040516101bb919061073e565b60405180910390f35b68056bc75e2d63100000811115610210576040517f08c379a0000000000000000000000000000000000000000000000000000000008152600401610207906107b6565b60405180910390fd5b60006064600a6001546102239190610805565b61022d9190610876565b9050806001600082825461024191906108a7565b9250508190555060005b600581101561032457600060018261026391906108a7565b905060006001546000808473ffffffffffffffffffffffffffffffffffffffff1673ffffffffffffffffffffffffffffffffffffffff16815260200190815260200160002054856102b49190610805565b6102be9190610876565b9050806000808473ffffffffffffffffffffffffffffffffffffffff1673ffffffffffffffffffffffffffffffffffffffff168152602001908152602001600020600082825461030e91906108a7565b925050819055505050808060010191505061024b565b505050565b60015481565b60006020528060005260406000206000915090505481565b806000803373ffffffffffffffffffffffffffffffffffffffff1673ffffffffffffffffffffffffffffffffffffffff1681526020019081526020016000205410156103c8576040517f08c379a00000000000000000000000000000000000000000000000000000000081526004016103bf90610927565b60405180910390fd5b806000803373ffffffffffffffffffffffffffffffffffffffff1673ffffffffffffffffffffffffffffffffffffffff16815260200190815260200160002060008282546104169190610947565b92505081905550806001600082825461042f9190610947565b9250508190555050565b68056bc75e2d6310000081565b60025481565b600a81565b600060025403610470578060015461046991906108a7565b6002819055505b806000803373ffffffffffffffffffffffffffffffffffffffff1673ffffffffffffffffffffffffffffffffffffffff16815260200190815260200160002060008282546104be91906108a7565b9250508190555080600160008282546104d791906108a7565b9250508190555050565b60008060025411610527576040517f08c379a000000000000000000000000000000000000000000000000000000000815260040161051e906109c7565b60405180910390fd5b60008060008673ffffffffffffffffffffffffffffffffffffffff1673ffffffffffffffffffffffffffffffffffffffff168152602001908152602001600020549050600084848361057991906108a7565b6105839190610947565b905060006002546064836105979190610805565b6105a19190610876565b90506019811193505050509392505050565b600080fd5b6000819050919050565b6105cb816105b8565b81146105d657600080fd5b50565b6000813590506105e8816105c2565b92915050565b600060208284031215610604576106036105b3565b5b6000610612848285016105d9565b91505092915050565b610624816105b8565b82525050565b600060208201905061063f600083018461061b565b92915050565b600073ffffffffffffffffffffffffffffffffffffffff82169050919050565b600061067082610645565b9050919050565b61068081610665565b811461068b57600080fd5b50565b60008135905061069d81610677565b92915050565b6000602082840312156106b9576106b86105b3565b5b60006106c78482850161068e565b91505092915050565b6000806000606084860312156106e9576106e86105b3565b5b60006106f78682870161068e565b9350506020610708868287016105d9565b9250506040610719868287016105d9565b9150509250925092565b60008115159050919050565b61073881610723565b82525050565b6000602082019050610753600083018461072f565b92915050565b600082825260208201905092915050565b7f547261646520746f6f206c617267650000000000000000000000000000000000600082015250565b60006107a0600f83610759565b91506107ab8261076a565b602082019050919050565b600060208201905081810360008301526107cf81610793565b9050919050565b7f4e487b7100000000000000000000000000000000000000000000000000000000600052601160045260246000fd5b6000610810826105b8565b915061081b836105b8565b9250828202610829816105b8565b915082820484148315176108405761083f6107d6565b5b5092915050565b7f4e487b7100000000000000000000000000000000000000000000000000000000600052601260045260246000fd5b6000610881826105b8565b915061088c836105b8565b92508261089c5761089b610847565b5b828204905092915050565b60006108b2826105b8565b91506108bd836105b8565b92508282019050808211156108d5576108d46107d6565b5b92915050565b7f496e73756666696369656e742062616c616e6365000000000000000000000000600082015250565b6000610911601483610759565b915061091c826108db565b602082019050919050565b6000602082019050818103600083015261094081610904565b9050919050565b6000610952826105b8565b915061095d836105b8565b9250828203905081811115610975576109746107d6565b5b92915050565b7f496e697469616c20746f74616c20737570706c79206e6f742073657400000000600082015250565b60006109b1601c83610759565b91506109bc8261097b565b602082019050919050565b600060208201905081810360008301526109e0816109a4565b905091905056fea26469706673582212206ea99c75cc149991d38008b32fe155619c716079567e70caff73245c234c630464736f6c63430008190033","linkReferences":{}},"methodIdentifiers":{"DISCOUNT_FEE_PERCENTAGE()":"596404f2","DISCOUNT_THRESHOLD()":"30449553","balances(address)":"27e235e3","checkVictory(address,uint256,uint256)":"e8f8eda7","deposit(uint256)":"b6b55f25","executeTrade(uint256)":"02d2838b","initialTotalSupply()":"311028af","totalSupply()":"18160ddd","withdraw(uint256)":"2e1a7d4d"},"id":41}