{"abi":[{"type":"constructor","inputs":[{"name":"assetToken","type":"address","internalType":"contract IERC20"}],"stateMutability":"nonpayable"},{"type":"function","name":"allowance","inputs":[{"name":"owner","type":"address","internalType":"address"},{"name":"spender","type":"address","internalType":"address"}],"outputs":[{"name":"","type":"uint256","internalType":"uint256"}],"stateMutability":"view"},{"type":"function","name":"approve","inputs":[{"name":"spender","type":"address","internalType":"address"},{"name":"value","type":"uint256","internalType":"uint256"}],"outputs":[{"name":"","type":"bool","internalType":"bool"}],"stateMutability":"nonpayable"},{"type":"function","name":"asset","inputs":[],"outputs":[{"name":"","type":"address","internalType":"address"}],"stateMutability":"view"},{"type":"function","name":"balanceOf","inputs":[{"name":"account","type":"address","internalType":"address"}],"outputs":[{"name":"","type":"uint256","internalType":"uint256"}],"stateMutability":"view"},{"type":"function","name":"convertToAssets","inputs":[{"name":"shares","type":"uint256","internalType":"uint256"}],"outputs":[{"name":"","type":"uint256","internalType":"uint256"}],"stateMutability":"view"},{"type":"function","name":"convertToShares","inputs":[{"name":"assets","type":"uint256","internalType":"uint256"}],"outputs":[{"name":"","type":"uint256","internalType":"uint256"}],"stateMutability":"view"},{"type":"function","name":"decimals","inputs":[],"outputs":[{"name":"","type":"uint8","internalType":"uint8"}],"stateMutability":"view"},{"type":"function","name":"deposit","inputs":[{"name":"assets","type":"uint256","internalType":"uint256"},{"name":"receiver","type":"address","internalType":"address"}],"outputs":[{"name":"shares","type":"uint256","internalType":"uint256"}],"stateMutability":"nonpayable"},{"type":"function","name":"donateAssets","inputs":[{"name":"amount","type":"uint256","internalType":"uint256"}],"outputs":[],"stateMutability":"nonpayable"},{"type":"function","name":"maxDeposit","inputs":[{"name":"","type":"address","internalType":"address"}],"outputs":[{"name":"","type":"uint256","internalType":"uint256"}],"stateMutability":"view"},{"type":"function","name":"maxMint","inputs":[{"name":"","type":"address","internalType":"address"}],"outputs":[{"name":"","type":"uint256","internalType":"uint256"}],"stateMutability":"view"},{"type":"function","name":"maxRedeem","inputs":[{"name":"owner","type":"address","internalType":"address"}],"outputs":[{"name":"","type":"uint256","internalType":"uint256"}],"stateMutability":"view"},{"type":"function","name":"maxWithdraw","inputs":[{"name":"owner","type":"address","internalType":"address"}],"outputs":[{"name":"","type":"uint256","internalType":"uint256"}],"stateMutability":"view"},{"type":"function","name":"mint","inputs":[{"name":"shares","type":"uint256","internalType":"uint256"},{"name":"receiver","type":"address","internalType":"address"}],"outputs":[{"name":"assets","type":"uint256","internalType":"uint256"}],"stateMutability":"nonpayable"},{"type":"function","name":"name","inputs":[],"outputs":[{"name":"","type":"string","internalType":"string"}],"stateMutability":"view"},{"type":"function","name":"previewDeposit","inputs":[{"name":"assets","type":"uint256","internalType":"uint256"}],"outputs":[{"name":"","type":"uint256","internalType":"uint256"}],"stateMutability":"view"},{"type":"function","name":"previewMint","inputs":[{"name":"shares","type":"uint256","internalType":"uint256"}],"outputs":[{"name":"","type":"uint256","internalType":"uint256"}],"stateMutability":"view"},{"type":"function","name":"previewRedeem","inputs":[{"name":"shares","type":"uint256","internalType":"uint256"}],"outputs":[{"name":"","type":"uint256","internalType":"uint256"}],"stateMutability":"view"},{"type":"function","name":"previewWithdraw","inputs":[{"name":"assets","type":"uint256","internalType":"uint256"}],"outputs":[{"name":"","type":"uint256","internalType":"uint256"}],"stateMutability":"view"},{"type":"function","name":"redeem","inputs":[{"name":"shares","type":"uint256","internalType":"uint256"},{"name":"receiver","type":"address","internalType":"address"},{"name":"owner","type":"address","internalType":"address"}],"outputs":[{"name":"assets","type":"uint256","internalType":"uint256"}],"stateMutability":"nonpayable"},{"type":"function","name":"symbol","inputs":[],"outputs":[{"name":"","type":"string","internalType":"string"}],"stateMutability":"view"},{"type":"function","name":"totalAssets","inputs":[],"outputs":[{"name":"","type":"uint256","internalType":"uint256"}],"stateMutability":"view"},{"type":"function","name":"totalSupply","inputs":[],"outputs":[{"name":"","type":"uint256","internalType":"uint256"}],"stateMutability":"view"},{"type":"function","name":"transfer","inputs":[{"name":"to","type":"address","internalType":"address"},{"name":"value","type":"uint256","internalType":"uint256"}],"outputs":[{"name":"","type":"bool","internalType":"bool"}],"stateMutability":"nonpayable"},{"type":"function","name":"transferFrom","inputs":[{"name":"from","type":"address","internalType":"address"},{"name":"to","type":"address","internalType":"address"},{"name":"value","type":"uint256","internalType":"uint256"}],"outputs":[{"name":"","type":"bool","internalType":"bool"}],"stateMutability":"nonpayable"},{"type":"function","name":"withdraw","inputs":[{"name":"assets","type":"uint256","internalType":"uint256"},{"name":"receiver","type":"address","internalType":"address"},{"name":"owner","type":"address","internalType":"address"}],"outputs":[{"name":"shares","type":"uint256","internalType":"uint256"}],"stateMutability":"nonpayable"},{"type":"event","name":"Approval","inputs":[{"name":"owner","type":"address","indexed":true,"internalType":"address"},{"name":"spender","type":"address","indexed":true,"internalType":"address"},{"name":"value","type":"uint256","indexed":false,"internalType":"uint256"}],"anonymous":false},{"type":"event","name":"Deposit","inputs":[{"name":"sender","type":"address","indexed":true,"internalType":"address"},{"name":"owner","type":"address","indexed":true,"internalType":"address"},{"name":"assets","type":"uint256","indexed":false,"internalType":"uint256"},{"name":"shares","type":"uint256","indexed":false,"internalType":"uint256"}],"anonymous":false},{"type":"event","name":"Transfer","inputs":[{"name":"from","type":"address","indexed":true,"internalType":"address"},{"name":"to","type":"address","indexed":true,"internalType":"address"},{"name":"value","type":"uint256","indexed":false,"internalType":"uint256"}],"anonymous":false},{"type":"event","name":"Withdraw","inputs":[{"name":"sender","type":"address","indexed":true,"internalType":"address"},{"name":"receiver","type":"address","indexed":true,"internalType":"address"},{"name":"owner","type":"address","indexed":true,"internalType":"address"},{"name":"assets","type":"uint256","indexed":false,"internalType":"uint256"},{"name":"shares","type":"uint256","indexed":false,"internalType":"uint256"}],"anonymous":false},{"type":"error","name":"ERC20InsufficientAllowance","inputs":[{"name":"spender","type":"address","internalType":"address"},{"name":"allowance","type":"uint256","internalType":"uint256"},{"name":"needed","type":"uint256","internalType":"uint256"}]},{"type":"error","name":"ERC20InsufficientBalance","inputs":[{"name":"sender","type":"address","internalType":"address"},{"name":"balance","type":"uint256","internalType":"uint256"},{"name":"needed","type":"uint256","internalType":"uint256"}]},{"type":"error","name":"ERC20InvalidApprover","inputs":[{"name":"approver","type":"address","internalType":"address"}]},{"type":"error","name":"ERC20InvalidReceiver","inputs":[{"name":"receiver","type":"address","internalType":"address"}]},{"type":"error","name":"ERC20InvalidSender","inputs":[{"name":"sender","type":"address","internalType":"address"}]},{"type":"error","name":"ERC20InvalidSpender","inputs":[{"name":"spender","type":"address","internalType":"address"}]},{"type":"error","name":"SafeERC20FailedOperation","inputs":[{"name":"token","type":"address","internalType":"address"}]}],"bytecode":{"object":"0x60a060405234801561001057600080fd5b5060405161249b38038061249b8339818101604052810190610032919061016f565b6040518060400160405280601081526020017f56756c6e657261626c65205661756c74000000000000000000000000000000008152506040518060400160405280600481526020017f76564c540000000000000000000000000000000000000000000000000000000081525081600390816100ad91906103ec565b5080600490816100bd91906103ec565b5050508073ffffffffffffffffffffffffffffffffffffffff1660808173ffffffffffffffffffffffffffffffffffffffff1681525050506104be565b600080fd5b600073ffffffffffffffffffffffffffffffffffffffff82169050919050565b600061012a826100ff565b9050919050565b600061013c8261011f565b9050919050565b61014c81610131565b811461015757600080fd5b50565b60008151905061016981610143565b92915050565b600060208284031215610185576101846100fa565b5b60006101938482850161015a565b91505092915050565b600081519050919050565b7f4e487b7100000000000000000000000000000000000000000000000000000000600052604160045260246000fd5b7f4e487b7100000000000000000000000000000000000000000000000000000000600052602260045260246000fd5b6000600282049050600182168061021d57607f821691505b6020821081036102305761022f6101d6565b5b50919050565b60008190508160005260206000209050919050565b60006020601f8301049050919050565b600082821b905092915050565b6000600883026102987fffffffffffffffffffffffffffffffffffffffffffffffffffffffffffffffff8261025b565b6102a2868361025b565b95508019841693508086168417925050509392505050565b6000819050919050565b6000819050919050565b60006102e96102e46102df846102ba565b6102c4565b6102ba565b9050919050565b6000819050919050565b610303836102ce565b61031761030f826102f0565b848454610268565b825550505050565b600090565b61032c61031f565b6103378184846102fa565b505050565b5b8181101561035b57610350600082610324565b60018101905061033d565b5050565b601f8211156103a05761037181610236565b61037a8461024b565b81016020851015610389578190505b61039d6103958561024b565b83018261033c565b50505b505050565b600082821c905092915050565b60006103c3600019846008026103a5565b1980831691505092915050565b60006103dc83836103b2565b9150826002028217905092915050565b6103f58261019c565b67ffffffffffffffff81111561040e5761040d6101a7565b5b6104188254610205565b61042382828561035f565b600060209050601f8311600181146104565760008415610444578287015190505b61044e85826103d0565b8655506104b6565b601f19841661046486610236565b60005b8281101561048c57848901518255600182019150602085019450602081019050610467565b868310156104a957848901516104a5601f8916826103b2565b8355505b6001600288020188555050505b505050505050565b608051611f98610503600039600081816105f7015281816107f20152818161085a015281816108f001528181610a0a01528181610bc50152610cec0152611f986000f3fe608060405234801561001057600080fd5b506004361061018e5760003560e01c806370a08231116100de578063ba08765211610097578063ce96cb7711610071578063ce96cb7714610533578063d905777e14610563578063dd62ed3e14610593578063ef8b30f7146105c35761018e565b8063ba087652146104a3578063c63d75b6146104d3578063c6e6f592146105035761018e565b806370a082311461039557806394bf804d146103c557806395d89b41146103f5578063a9059cbb14610413578063b3d7f6b914610443578063b460af94146104735761018e565b806323b872dd1161014b578063402d267d11610125578063402d267d146102e95780634cdad5061461031957806352c56b5e146103495780636e553f65146103655761018e565b806323b872dd1461027d578063313ce567146102ad57806338d52e0f146102cb5761018e565b806301e1d1141461019357806306fdde03146101b157806307a2d13a146101cf578063095ea7b3146101ff5780630a28a4771461022f57806318160ddd1461025f575b600080fd5b61019b6105f3565b6040516101a891906118e8565b60405180910390f35b6101b9610694565b6040516101c69190611993565b60405180910390f35b6101e960048036038101906101e491906119e6565b610726565b6040516101f691906118e8565b60405180910390f35b61021960048036038101906102149190611a71565b610777565b6040516102269190611acc565b60405180910390f35b610249600480360381019061024491906119e6565b61079a565b60405161025691906118e8565b60405180910390f35b6102676107ac565b60405161027491906118e8565b60405180910390f35b61029760048036038101906102929190611ae7565b6107b6565b6040516102a49190611acc565b60405180910390f35b6102b56107e5565b6040516102c29190611b56565b60405180910390f35b6102d36107ee565b6040516102e09190611b80565b60405180910390f35b61030360048036038101906102fe9190611b9b565b610816565b60405161031091906118e8565b60405180910390f35b610333600480360381019061032e91906119e6565b610840565b60405161034091906118e8565b60405180910390f35b610363600480360381019061035e91906119e6565b610852565b005b61037f600480360381019061037a9190611bc8565b6108a2565b60405161038c91906118e8565b60405180910390f35b6103af60048036038101906103aa9190611b9b565b6109a3565b6040516103bc91906118e8565b60405180910390f35b6103df60048036038101906103da9190611bc8565b6109eb565b6040516103ec91906118e8565b60405180910390f35b6103fd610abc565b60405161040a9190611993565b60405180910390f35b61042d60048036038101906104289190611a71565b610b4e565b60405161043a9190611acc565b60405180910390f35b61045d600480360381019061045891906119e6565b610b71565b60405161046a91906118e8565b60405180910390f35b61048d60048036038101906104889190611c08565b610b83565b60405161049a91906118e8565b60405180910390f35b6104bd60048036038101906104b89190611c08565b610c8f565b6040516104ca91906118e8565b60405180910390f35b6104ed60048036038101906104e89190611b9b565b610db5565b6040516104fa91906118e8565b60405180910390f35b61051d600480360381019061051891906119e6565b610ddf565b60405161052a91906118e8565b60405180910390f35b61054d60048036038101906105489190611b9b565b610e22565b60405161055a91906118e8565b60405180910390f35b61057d60048036038101906105789190611b9b565b610e3c565b60405161058a91906118e8565b60405180910390f35b6105ad60048036038101906105a89190611c5b565b610e4e565b6040516105ba91906118e8565b60405180910390f35b6105dd60048036038101906105d891906119e6565b610ed5565b6040516105ea91906118e8565b60405180910390f35b60007f000000000000000000000000000000000000000000000000000000000000000073ffffffffffffffffffffffffffffffffffffffff166370a08231306040518263ffffffff1660e01b815260040161064e9190611b80565b602060405180830381865afa15801561066b573d6000803e3d6000fd5b505050506040513d601f19601f8201168201806040525081019061068f9190611cb0565b905090565b6060600380546106a390611d0c565b80601f01602080910402602001604051908101604052809291908181526020018280546106cf90611d0c565b801561071c5780601f106106f15761010080835404028352916020019161071c565b820191906000526020600020905b8154815290600101906020018083116106ff57829003601f168201915b5050505050905090565b6000806107316107ac565b9050600081036107445782915050610772565b80606461074f6105f3565b8561075a9190611d6c565b6107649190611d6c565b61076e9190611ddd565b9150505b919050565b600080610782610ee7565b905061078f818585610eef565b600191505092915050565b60006107a582610ddf565b9050919050565b6000600254905090565b6000806107c1610ee7565b90506107ce858285610f01565b6107d9858585610f95565b60019150509392505050565b60006012905090565b60007f0000000000000000000000000000000000000000000000000000000000000000905090565b60007fffffffffffffffffffffffffffffffffffffffffffffffffffffffffffffffff9050919050565b600061084b82610726565b9050919050565b61089f3330837f000000000000000000000000000000000000000000000000000000000000000073ffffffffffffffffffffffffffffffffffffffff16611089909392919063ffffffff16565b50565b6000806108ad6107ac565b9050600081146108da576108bf6105f3565b81856108cb9190611d6c565b6108d59190611ddd565b6108dc565b835b91506108e8838361110b565b6109353330867f000000000000000000000000000000000000000000000000000000000000000073ffffffffffffffffffffffffffffffffffffffff16611089909392919063ffffffff16565b8273ffffffffffffffffffffffffffffffffffffffff163373ffffffffffffffffffffffffffffffffffffffff167fdcbc1c05240f31ff3ad067ef1ee35ce4997762752e3a095284754544f4c709d78685604051610994929190611e0e565b60405180910390a35092915050565b60008060008373ffffffffffffffffffffffffffffffffffffffff1673ffffffffffffffffffffffffffffffffffffffff168152602001908152602001600020549050919050565b60006109f683610726565b9050610a02828461110b565b610a4f3330837f000000000000000000000000000000000000000000000000000000000000000073ffffffffffffffffffffffffffffffffffffffff16611089909392919063ffffffff16565b8173ffffffffffffffffffffffffffffffffffffffff163373ffffffffffffffffffffffffffffffffffffffff167fdcbc1c05240f31ff3ad067ef1ee35ce4997762752e3a095284754544f4c709d78386604051610aae929190611e0e565b60405180910390a392915050565b606060048054610acb90611d0c565b80601f0160208091040260200160405190810160405280929190818152602001828054610af790611d0c565b8015610b445780601f10610b1957610100808354040283529160200191610b44565b820191906000526020600020905b815481529060010190602001808311610b2757829003601f168201915b5050505050905090565b600080610b59610ee7565b9050610b66818585610f95565b600191505092915050565b6000610b7c82610726565b9050919050565b6000610b8e826109a3565b90506000610b9b82610726565b905080851015610bb457849050610bb181610ddf565b91505b610bbe838361118d565b610c0984827f000000000000000000000000000000000000000000000000000000000000000073ffffffffffffffffffffffffffffffffffffffff1661120f9092919063ffffffff16565b8273ffffffffffffffffffffffffffffffffffffffff168473ffffffffffffffffffffffffffffffffffffffff163373ffffffffffffffffffffffffffffffffffffffff167ffbde797d201c681b91056529119e0b02407c7bb96a4a2c75c01fc9667232c8db8486604051610c7f929190611e0e565b60405180910390a4509392505050565b60008173ffffffffffffffffffffffffffffffffffffffff163373ffffffffffffffffffffffffffffffffffffffff1614610cd057610ccf823386610f01565b5b610cd984610726565b9050610ce5828561118d565b610d3083827f000000000000000000000000000000000000000000000000000000000000000073ffffffffffffffffffffffffffffffffffffffff1661120f9092919063ffffffff16565b8173ffffffffffffffffffffffffffffffffffffffff168373ffffffffffffffffffffffffffffffffffffffff163373ffffffffffffffffffffffffffffffffffffffff167ffbde797d201c681b91056529119e0b02407c7bb96a4a2c75c01fc9667232c8db8488604051610da6929190611e0e565b60405180910390a49392505050565b60007fffffffffffffffffffffffffffffffffffffffffffffffffffffffffffffffff9050919050565b600080610dea6107ac565b905060008114610e1857610e1381610e006105f3565b60008661128e909392919063ffffffff16565b610e1a565b825b915050919050565b6000610e35610e30836109a3565b610726565b9050919050565b6000610e47826109a3565b9050919050565b6000600160008473ffffffffffffffffffffffffffffffffffffffff1673ffffffffffffffffffffffffffffffffffffffff16815260200190815260200160002060008373ffffffffffffffffffffffffffffffffffffffff1673ffffffffffffffffffffffffffffffffffffffff16815260200190815260200160002054905092915050565b6000610ee082610ddf565b9050919050565b600033905090565b610efc83838360016112dd565b505050565b6000610f0d8484610e4e565b90507fffffffffffffffffffffffffffffffffffffffffffffffffffffffffffffffff8114610f8f5781811015610f7f578281836040517ffb8f41b2000000000000000000000000000000000000000000000000000000008152600401610f7693929190611e37565b60405180910390fd5b610f8e848484840360006112dd565b5b50505050565b600073ffffffffffffffffffffffffffffffffffffffff168373ffffffffffffffffffffffffffffffffffffffff16036110075760006040517f96c6fd1e000000000000000000000000000000000000000000000000000000008152600401610ffe9190611b80565b60405180910390fd5b600073ffffffffffffffffffffffffffffffffffffffff168273ffffffffffffffffffffffffffffffffffffffff16036110795760006040517fec442f050000000000000000000000000000000000000000000000000000000081526004016110709190611b80565b60405180910390fd5b6110848383836114b4565b505050565b611105848573ffffffffffffffffffffffffffffffffffffffff166323b872dd8686866040516024016110be93929190611e6e565b604051602081830303815290604052915060e01b6020820180517bffffffffffffffffffffffffffffffffffffffffffffffffffffffff83818316178352505050506116d9565b50505050565b600073ffffffffffffffffffffffffffffffffffffffff168273ffffffffffffffffffffffffffffffffffffffff160361117d5760006040517fec442f050000000000000000000000000000000000000000000000000000000081526004016111749190611b80565b60405180910390fd5b611189600083836114b4565b5050565b600073ffffffffffffffffffffffffffffffffffffffff168273ffffffffffffffffffffffffffffffffffffffff16036111ff5760006040517f96c6fd1e0000000000000000000000000000000000000000000000000000000081526004016111f69190611b80565b60405180910390fd5b61120b826000836114b4565b5050565b611289838473ffffffffffffffffffffffffffffffffffffffff1663a9059cbb8585604051602401611242929190611ea5565b604051602081830303815290604052915060e01b6020820180517bffffffffffffffffffffffffffffffffffffffffffffffffffffffff83818316178352505050506116d9565b505050565b60006112be61129c8361177b565b80156112b95750600084806112b4576112b3611dae565b5b868809115b6117a9565b6112c98686866117b5565b6112d39190611ece565b9050949350505050565b600073ffffffffffffffffffffffffffffffffffffffff168473ffffffffffffffffffffffffffffffffffffffff160361134f5760006040517fe602df050000000000000000000000000000000000000000000000000000000081526004016113469190611b80565b60405180910390fd5b600073ffffffffffffffffffffffffffffffffffffffff168373ffffffffffffffffffffffffffffffffffffffff16036113c15760006040517f94280d620000000000000000000000000000000000000000000000000000000081526004016113b89190611b80565b60405180910390fd5b81600160008673ffffffffffffffffffffffffffffffffffffffff1673ffffffffffffffffffffffffffffffffffffffff16815260200190815260200160002060008573ffffffffffffffffffffffffffffffffffffffff1673ffffffffffffffffffffffffffffffffffffffff1681526020019081526020016000208190555080156114ae578273ffffffffffffffffffffffffffffffffffffffff168473ffffffffffffffffffffffffffffffffffffffff167f8c5be1e5ebec7d5bd14f71427d1e84f3dd0314c0f7b2291e5b200ac8c7c3b925846040516114a591906118e8565b60405180910390a35b50505050565b600073ffffffffffffffffffffffffffffffffffffffff168373ffffffffffffffffffffffffffffffffffffffff16036115065780600260008282546114fa9190611ece565b925050819055506115d9565b60008060008573ffffffffffffffffffffffffffffffffffffffff1673ffffffffffffffffffffffffffffffffffffffff16815260200190815260200160002054905081811015611592578381836040517fe450d38c00000000000000000000000000000000000000000000000000000000815260040161158993929190611e37565b60405180910390fd5b8181036000808673ffffffffffffffffffffffffffffffffffffffff1673ffffffffffffffffffffffffffffffffffffffff16815260200190815260200160002081905550505b600073ffffffffffffffffffffffffffffffffffffffff168273ffffffffffffffffffffffffffffffffffffffff1603611622578060026000828254039250508190555061166f565b806000808473ffffffffffffffffffffffffffffffffffffffff1673ffffffffffffffffffffffffffffffffffffffff168152602001908152602001600020600082825401925050819055505b8173ffffffffffffffffffffffffffffffffffffffff168373ffffffffffffffffffffffffffffffffffffffff167fddf252ad1be2c89b69c2b068fc378daa952ba7f163c4a11628f55a4df523b3ef836040516116cc91906118e8565b60405180910390a3505050565b600080602060008451602086016000885af1806116fc576040513d6000823e3d81fd5b3d925060005191505060008214611717576001811415611733565b60008473ffffffffffffffffffffffffffffffffffffffff163b145b1561177557836040517f5274afe700000000000000000000000000000000000000000000000000000000815260040161176c9190611b80565b60405180910390fd5b50505050565b60006001600283600381111561179457611793611f02565b5b61179e9190611f31565b60ff16149050919050565b60008115159050919050565b60008083850290506000801985870982811083820303915050600081036117f0578382816117e6576117e5611dae565b5b049250505061189c565b8084116118105761180f61180a60008614601260116118a3565b6118bd565b5b600084868809905082811182039150808303925060008560000386169050808604955080840493506001818260000304019050808302841793506000600287600302189050808702600203810290508087026002038102905080870260020381029050808702600203810290508087026002038102905080870260020381029050808502955050505050505b9392505050565b60006118ae846117a9565b82841802821890509392505050565b634e487b71600052806020526024601cfd5b6000819050919050565b6118e2816118cf565b82525050565b60006020820190506118fd60008301846118d9565b92915050565b600081519050919050565b600082825260208201905092915050565b60005b8381101561193d578082015181840152602081019050611922565b60008484015250505050565b6000601f19601f8301169050919050565b600061196582611903565b61196f818561190e565b935061197f81856020860161191f565b61198881611949565b840191505092915050565b600060208201905081810360008301526119ad818461195a565b905092915050565b600080fd5b6119c3816118cf565b81146119ce57600080fd5b50565b6000813590506119e0816119ba565b92915050565b6000602082840312156119fc576119fb6119b5565b5b6000611a0a848285016119d1565b91505092915050565b600073ffffffffffffffffffffffffffffffffffffffff82169050919050565b6000611a3e82611a13565b9050919050565b611a4e81611a33565b8114611a5957600080fd5b50565b600081359050611a6b81611a45565b92915050565b60008060408385031215611a8857611a876119b5565b5b6000611a9685828601611a5c565b9250506020611aa7858286016119d1565b9150509250929050565b60008115159050919050565b611ac681611ab1565b82525050565b6000602082019050611ae16000830184611abd565b92915050565b600080600060608486031215611b0057611aff6119b5565b5b6000611b0e86828701611a5c565b9350506020611b1f86828701611a5c565b9250506040611b30868287016119d1565b9150509250925092565b600060ff82169050919050565b611b5081611b3a565b82525050565b6000602082019050611b6b6000830184611b47565b92915050565b611b7a81611a33565b82525050565b6000602082019050611b956000830184611b71565b92915050565b600060208284031215611bb157611bb06119b5565b5b6000611bbf84828501611a5c565b91505092915050565b60008060408385031215611bdf57611bde6119b5565b5b6000611bed858286016119d1565b9250506020611bfe85828601611a5c565b9150509250929050565b600080600060608486031215611c2157611c206119b5565b5b6000611c2f868287016119d1565b9350506020611c4086828701611a5c565b9250506040611c5186828701611a5c565b9150509250925092565b60008060408385031215611c7257611c716119b5565b5b6000611c8085828601611a5c565b9250506020611c9185828601611a5c565b9150509250929050565b600081519050611caa816119ba565b92915050565b600060208284031215611cc657611cc56119b5565b5b6000611cd484828501611c9b565b91505092915050565b7f4e487b7100000000000000000000000000000000000000000000000000000000600052602260045260246000fd5b60006002820490506001821680611d2457607f821691505b602082108103611d3757611d36611cdd565b5b50919050565b7f4e487b7100000000000000000000000000000000000000000000000000000000600052601160045260246000fd5b6000611d77826118cf565b9150611d82836118cf565b9250828202611d90816118cf565b91508282048414831517611da757611da6611d3d565b5b5092915050565b7f4e487b7100000000000000000000000000000000000000000000000000000000600052601260045260246000fd5b6000611de8826118cf565b9150611df3836118cf565b925082611e0357611e02611dae565b5b828204905092915050565b6000604082019050611e2360008301856118d9565b611e3060208301846118d9565b9392505050565b6000606082019050611e4c6000830186611b71565b611e5960208301856118d9565b611e6660408301846118d9565b949350505050565b6000606082019050611e836000830186611b71565b611e906020830185611b71565b611e9d60408301846118d9565b949350505050565b6000604082019050611eba6000830185611b71565b611ec760208301846118d9565b9392505050565b6000611ed9826118cf565b9150611ee4836118cf565b9250828201905080821115611efc57611efb611d3d565b5b92915050565b7f4e487b7100000000000000000000000000000000000000000000000000000000600052602160045260246000fd5b6000611f3c82611b3a565b9150611f4783611b3a565b925082611f5757611f56611dae565b5b82820690509291505056fea2646970667358221220603c654db83455cd8a5cd5b4480d003d59d050df8e3c117767c3ffeec66ae07564736f6c63430008190033","linkReferences":{}},"methodIdentifiers":{"allowance(address,address)":"dd62ed3e","approve(address,uint256)":"095ea7b3","asset()":"38d52e0f","balanceOf(address)":"70a08231","convertToAssets(uint256)":"07a2d13a","convertToShares(uint256)":"c6e6f592","decimals()":"313ce567","deposit(uint256,address)":"6e553f65","donateAssets(uint256)":"52c56b5e","maxDeposit(address)":"402d267d","maxMint(address)":"c63d75b6","maxRedeem(address)":"d905777e","maxWithdraw(address)":"ce96cb77","mint(uint256,address)":"94bf804d","name()":"06fdde03","previewDeposit(uint256)":"ef8b30f7","previewMint(uint256)":"b3d7f6b9","previewRedeem(uint256)":"4cdad506","previewWithdraw(uint256)":"0a28a477","redeem(uint256,address,address)":"ba087652","symbol()":"95d89b41","totalAssets()":"01e1d114","totalSupply()":"18160ddd","transfer(address,uint256)":"a9059cbb","transferFrom(address,address,uint256)":"23b872dd","withdraw(uint256,address,address)":"b460af94"},"id":42}